{
  "_format": "hh-sol-artifact-1",
  "contractName": "Proxy",
  "sourceName": "contracts/Proxy.sol",
  "abi": [
    {
      "stateMutability": "nonpayable",
      "type": "fallback"
    },
    {
      "inputs": [
        {
          "internalType": "address",
          "name": "_implementation",
          "type": "address"
        }
      ],
      "name": "changeImplementation",
      "outputs": [],
      "stateMutability": "nonpayable",
      "type": "function"
    },
    {
      "inputs": [],
      "name": "x",
      "outputs": [
        {
          "internalType": "uint256",
          "name": "",
          "type": "uint256"
        }
      ],
      "stateMutability": "view",
      "type": "function"
    }
  ],
  "bytecode": "0x60806040526000805534801561001457600080fd5b50610360806100246000396000f3fe608060405234801561001057600080fd5b506004361061003a5760003560e01c80630c55699c1461010d57806317a68dd81461012b5761003b565b5b6000600160009054906101000a900473ffffffffffffffffffffffffffffffffffffffff1673ffffffffffffffffffffffffffffffffffffffff166000366040516100879291906101d0565b600060405180830381855af49150503d80600081146100c2576040519150601f19603f3d011682016040523d82523d6000602084013e6100c7565b606091505b505090508061010b576040517f08c379a000000000000000000000000000000000000000000000000000000000815260040161010290610246565b60405180910390fd5b005b610115610147565b604051610122919061027f565b60405180910390f35b610145600480360381019061014091906102fd565b61014d565b005b60005481565b80600160006101000a81548173ffffffffffffffffffffffffffffffffffffffff021916908373ffffffffffffffffffffffffffffffffffffffff16021790555050565b600081905092915050565b82818337600083830152505050565b60006101b78385610191565b93506101c483858461019c565b82840190509392505050565b60006101dd8284866101ab565b91508190509392505050565b600082825260208201905092915050565b7f5472616e73616374696f6e204661696c65640000000000000000000000000000600082015250565b60006102306012836101e9565b915061023b826101fa565b602082019050919050565b6000602082019050818103600083015261025f81610223565b9050919050565b6000819050919050565b61027981610266565b82525050565b60006020820190506102946000830184610270565b92915050565b600080fd5b600073ffffffffffffffffffffffffffffffffffffffff82169050919050565b60006102ca8261029f565b9050919050565b6102da816102bf565b81146102e557600080fd5b50565b6000813590506102f7816102d1565b92915050565b6000602082840312156103135761031261029a565b5b6000610321848285016102e8565b9150509291505056fea26469706673582212202e2f5f0746b06b98d2bae5e562715aafdb2be96e5abe3ee3eb3ccbf11a2bdb7c64736f6c63430008110033",
  "linkReferences": {},
  "deployedLinkReferences": {}
}